S01900004652444D2D4B4C32355A2D54504D2D50574D2E68657886
S113000000300020E9090000890900008909000086
S113001000000000000000000000000000000000DC
S1130020000000000000000000000000890900003A
S11300300000000000000000890900008909000098
S11300408909000089090000890900008909000064
S11300508909000089090000890900008909000054
S11300608909000089090000890900008909000044
S11300708909000089090000890900008909000034
S11300808909000089090000890900008909000024
S11300908909000089090000890900008909000014
S11300A08909000089090000890900008909000004
S11300B089090000890900008909000089090000F4
S113080002B4714649084900095649008E4402BCA5
S11308107047C04602B4714649084900095C490062
S11308208E4402BC7047C046002934D00123002204
S113083010B488422CD301242407A14204D281425B
S113084002D209011B01F8E7E400A14204D281426B
S113085002D249005B00F8E7884201D3401A1A43E8
S11308604C08A04202D3001B5C0822438C08A0421F
S113087002D3001B9C082243CC08A04202D3001BD5
S1130880DC082243002803D01B0901D00909E3E74F
S1130890101C10BC7047002801D00020C04307B4CE
S11308A0024802A14018029003BDC046D9000000CE
S11308B00029F0D003B5FFF7B9FF0EBC4243891AF3
S11308C01847C046002941D010B4041C4C40A4462B
S11308D001230022002900D54942002800D54042C6
S11308E088422CD301242407A14204D2814202D29B
S11308F009011B01F8E7E400A14204D2814202D2BB
S113090049005B00F8E7884201D3401A1A434C08B7
S1130910A04202D3001B5C0822438C08A04202D3ED
S1130920001B9C082243CC08A04202D3001BDC0815
S11309302243002803D01B0901D00909E3E7101C56
S11309406446002C00D5404210BC7047002806D0F5
S113095003DB0020C043400801E08020000607B408
S1130960024802A14018029003BDC04619000000CD
S11309700029EBD003B5FFF7A7FF0EBC4243891A49
S11309801847C0467047C04680B500AF00BEBD469C
S113099080BDC04680B500AF064A0749074BD15019
S11309A0074A88235B010021D15000F023FDBD4696
S11309B080BDC04600E000E000000000080D00001B
S11309C00070044080B500AF054A064BD31A054AAF
S11309D0101C00211A1C00F049FEBD4680BDC04613
S11309E038F0FF1F00F0FF1F01F078FEFFF7D2FF81
S11309F0FFF7E8FF01F04AFE01F0E6FD01F07CFE9E
S1130A00044B0020191C00F08DFD031C181C00F081
S1130A1011FEC04600F0FF1F80B582B000AF7860C1
S1130A20FEE7C04680B582B000AF786007E07B681F
S1130A301B787A6801327A60181C00F013F87B681E
S1130A401B78002BF3D1BD4602B080BD80B500AF4A
S1130A50034B181C00F0A4FC031C181CBD4680BDED
S1130A6000A0064080B582B000AF021CFB1D1A70C6
S1130A70044AFB1D1B78101C191C00F0A5FCBD4684
S1130A8002B080BD00A0064080B500AF1D4A1D49DC
S1130A901D4BCB58A021490119431B4BD1501B4B73
S1130AA0802252009A641A4B194A52688021C90262
S1130AB00A435A60164B164A52698021C9020A43F6
S1130AC05A61124B80225200DA64114B104A526868
S1130AD0802109030A435A600D4B0D4A5269802153
S1130AE009030A435A610B4B802252005A600A4B95
S1130AF002225A60084B084A526902210A435A6189
S1130B00BD4680BD007004403810000000A00440C1
S1130B1040F00F4000C00440C0F00F4080B586B0E4
S1130B2000AF7860081C111C1A1CFB1C1870BB1C3D
S1130B3019707B1C1A70C24B9B79DBB21A1C0C23F4
S1130B4013409B080DD1BE4B9B79DBB21A1C1023BA
S1130B50134006D0BA4B9B79DBB21A1C20231340F6
S1130B6001D0012373E27A68B64B9A4201DD212356
S1130B706DE2BB1C1B78002B09D07A68B24B9A42F9
S1130B8003DD7A68B14B9A4201DD22235FE2FB1C4C
S1130B901B78002B02D0FB1C01221A707B1C1B78D3
S1130BA05BB2002B04DD7B1C1B785BB2192B01DDCF
S1130BB041234CE23B1C20331B785BB2172B05DD31
S1130BC03B1C20331B785BB2322B01DD42233EE217
S1130BD07B1C1B785BB27868191CFFF773FE031C3F
S1130BE03B613A699A4B9A4203DD3A69994B9A42BE
S1130BF001DD43232BE27B1C1B785BB27868191C54
S1130C00FFF760FE031C3A1C2032127852B25343A1
S1130C10FB60FA68904B9A4203DDFA688F4B9A4264
S1130C2001DD452313E2864A3B1C163352781A70C1
S1130C303B1C16333A1C163212783C218A431A7034
S1130C407A68874B9A4214DCFB1C1B78DB00DAB20F
S1130C50BB1C1B789B00DBB21343DAB23B1C16337C
S1130C601B781343DAB23B1C163310210A431A7063
S1130C7013E0FB1C1B78DB00DAB2BB1C1B789B0067
S1130C80DBB21343DAB23B1C16331B781343DAB2DC
S1130C903B1C163320210A431A70694B3A1C163246
S1130CA012785A707A686F4B9A4204DC3B1C1733F3
S1130CB000221A7027E07A686B4B9A4204DC3B1CD2
S1130CC0173301221A701EE07A68684B9A4204DCDA
S1130CD03B1C173302221A7015E07A68644B9A425F
S1130CE004DC3B1C173303221A700CE07A68614B56
S1130CF09A4204DC3B1C173304221A7003E03B1CA9
S1130D00173305221A704E4A3B1C163312781A7098
S1130D103B1C16333A1C1632117803220A401A700F
S1130D203B1C17331B78DB00DAB238231340DAB2EA
S1130D303B1C16331B781343DAB23B1C1633802159
S1130D4049420A431A703E4B3A1C163212781A7002
S1130D50BB1C1B78002B24D03B1C143300221A80AC
S1130D600DE0374B9B79DBB21A1C022313400ED1E2
S1130D703B1C14333A1C1432128801321A803B1C77
S1130D80143300215A5E3C4B9A42EADD00E0C0462F
S1130D902B4B9B79DBB21A1C0223134001D1232372
S1130DA055E13B1C143300221A800DE0244B9B793F
S1130DB0DBB21A1C102313400ED03B1C14333A1C14
S1130DC01432128801321A803B1C143300215A5EFB
S1130DD02A4B9A42EADD00E0C046194B9B79DBB20C
S1130DE01A1C1023134001D0112330E13B1C14338F
S1130DF000221A800FE0124B9B79DBB21A1C0C23E1
S1130E0013409B08022B0ED03B1C14333A1C1432A3
S1130E10128801321A803B1C143300215A5E174B8E
S1130E209A42E8DD00E0C046054B9B79DBB21A1C10
S1130E300C2313409B08022B22D01A2307E1C0463F
S1130E400040064080F0FA02BFC62D000048E801C9
S1130E507F841E0000093D00FF6BDC0200E1F50504
S1130E6000127A00D0121300A0252600404B4C003B
S1130E7080969800002D31011F4E0000CF0700001E
S1130E80754B754A5279D2B220210A43D2B25A71B3
S1130E90714A3B1C163312791A703B1C16333A1CE8
S1130EA0163212781F218A431A707B1C1B78013B6F
S1130EB0DAB21F231340D9B23B1C16333A1C163244
S1130EC012780A431A70644B3A1C163212781A715B
S1130ED0614A3B1C163352791A703B1C16333A1C78
S1130EE0163212781F218A431A703B1C20331B7858
S1130EF0183BDAB21F231340DAB23B1C16331B78BB
S1130F001343DAB23B1C163340210A431A70524B86
S1130F103A1C163212785A713B1C143300221A8080
S1130F200DE04D4B9B79DBB21A1C202313400ED1EC
S1130F303B1C14333A1C1432128801321A803B1CB5
S1130F40143300215A5E454B9A42EADD00E0C04664
S1130F50414B9B79DBB21A1C2023134001D1162389
S1130F6075E03B1C143300221A800DE03A4B9B7948
S1130F70DBB21A1C402313400ED13B1C14333A1C21
S1130F801432128801321A803B1C143300215A5E39
S1130F90334B9A42EADD00E0C0462F4B9B79DBB22B
S1130FA01A1C4023134001D1442350E02A4B1B79DF
S1130FB0DAB21F231340DAB23B1C0B3301321A702E
S1130FC0254B5B79DAB21F231340DAB23B1C0A3398
S1130FD018321A70204B204A1278D1B23F220A40AC
S1130FE0D2B21A703B1C143300221A800FE01A4B41
S1130FF09B79DBB21A1C0C2313409B08032B0ED0E5
S11310003B1C14333A1C1432128801321A803B1CE4
S1131010143300215A5E114B9A42E8DD00E0C046C9
S11310200D4B9B79DBB21A1C0C2313409B08032B3A
S113103001D01B230BE03B1C0B331B787868191C75
S1131040FFF740FC031C3A1C0A3212785343181C65
S1131050BD4606B080BDC04600400640CF07000034
S11310609F0F000080B584B000AFF860B9607A606B
S11310703B60FA68254B9A4209D1254A2449254BFD
S1131080CB58802149041943224BD15016E0FA6809
S1131090214B9A4209D11E4A1D491E4BCB5880212F
S11310A0890419431B4BD15008E0194A1849194BBC
S11310B0CB588021C9041943164BD150144A144902
S11310C0164BC958BB681806C0239B040340194338
S11310D0124BD1507A68FB689A60FB681A683B68C7
S11310E0D90018231940B869072303400B431A4356
S11310F0FB681A60FB69002B05D0FB681B68202283
S11311001A43FB681A60BD4604B080BD00800340EA
S1131110007004403C1000000090034004100000E4
S113112080B584B000AFF860B9607A60FA68BB68D3
S11311300133DB00D3185A687B681A43F968BB682B
S11311400133DB00CB185A60BD4604B080BDC046F5
S113115080B584B000AFF860B9607A607A68F968E5
S1131160BB680133DB00CB189A60BD4604B080BD78
S113117080B58EB000AFF860B9607A6000237B62FE
S113118000233B630023FB6200233B620023BB621A
S11311907D4A7D497D4BCB588021C90019437B4B47
S11311A0D1507B4B7A4AD278D2B20C218A43D2B244
S11311B0DA70BA68774B9A4202DCBB681F2B0EDCEC
S11311C00023BB60704A744BD3583B623A6A734B3A
S11311D013403B626C4A704B396AD150FEE77B681E
S11311E0FB61BB68FA2292005343BB613B1C37335B
S11311F004221A703B1C37331B78FA695343B869CD
S1131200191CFFF711FB031C7B613B1C37331B7854
S11312107A695343B869191CFFF706FB031C7B6208
S11312207A6AFB699A4204D97A6AFB69D31A3B63E6
S113123003E0FA697B6AD31A3B633B1C37331B78A0
S1131240FB623B1C373305221A7033E03B1C3733F7
S11312501B78FA695343B869191CFFF7E5FA031CB4
S11312607B613B1C37331B787A695343B869191C7B
S1131270FFF7DAFA031C7B627A6AFB699A4204D9A3
S11312807A6AFB69D31ABB6203E0FA697B6AD31AF0
S1131290BB62BA6A3B6B9A4205D8BB6A3B633B1C90
S11312A037331B78FB623B1C37333A1C37321278D6
S11312B001321A703B1C37331B78202BC6D9FB69CB
S11312C0181C6421FFF7B0FA031C1A1C131C5B00E2
S11312D09A183B6B9A4253D9FB6A032B0AD9FB6ACF
S11312E0082B07D82A4B2A4AD27AD2B202210A43BF
S11312F0D2B2DA72264B9B7ADBB23B623B6A1F2284
S113130093433B62FB6ADBB2013BDBB21A1C1F2333
S113131013403A6A13433B621D4B3A6AD2B29A7243
S11313203A6A1F23134001333B62FB693A6A534311
S1131330B869191CFFF778FA031C7B61144B1B78FE
S1131340DBB21F2293433B62114B7969F8225201AD
S11313500A40120AD1B21F220A40D1B23A6AD2B26A
S11313600A43D2B21A700A4B7A69D2B25A70084B45
S1131370074AD278D2B20C210A43D2B2DA7000E022
S1131380FEE7BD460EB080BD00700440341000007E
S113139000A0064050C3000004100000FFFFFFF34C
S11313A080B582B000AF7860C0467B681B79DBB241
S11313B01A1C20231340F8D07B68DB79DBB2181C9D
S11313C0BD4602B080BDC04680B582B000AF786033
S11313D00A1CFB1C1A70C0467B681B79DBB2DBB2AB
S11313E05BB2002BF8DA7B68FA1C1278DA71BD461E
S11313F002B080BD80B582B002AF3E4A3D493E4B4B
S1131400CB58F821890119433B4BD150394A3B4B06
S113141080214902D1503A4B1822009201220192B4
S1131420181C002101220423FFF778FB021C354B12
S11314301A60344B1B68181CFA239900FFF742FA10
S1131440031C1A1C304B1A602F4B1B681A1C2949A9
S11314502A4BCB581B0F0133101C191CFFF7E4F95E
S1131460031C1A1C294B1A60284B1B681A1C21499F
S1131470224BC958E023DB020B401B0C0133101C28
S1131480191CFFF7D1F9031C1A1C214B1A60194AC5
S11314901849204BCB588021490219431D4BD15088
S11314A01D4B802292005A601B4B802292009A604E
S11314B0104A1049174BCB588021C9041943154BC6
S11314C0D150104B1B68181CFA23D900FFF7FAF906
S11314D0031C1A1C114B1A60104B1A681049E123A3
S11314E05B02081C111C1A1CFFF742FEFFF7CCFA22
S11314F0BD4680BD00700440381000004410000058
S113150000127A001CF0FF1F30F0FF1F20F0FF1FB5
S113151024F0FF1F041000000090044028F0FF1F77
S113152000A0064090B585B002AF00237B60FB1C91
S113153000221A702A4B181CFFF774FA294BC02298
S113154092001A60284A294B072100910021019139
S1131550101C01211A1C0123FFF784FD224B181CC7
S113156000212822FFF7DCFD1F4B181C0021DC2280
S1131570FFF7EEFD1E4B181CFFF754FA00E0C046BF
S1131580FC1CFFF763FA031C2370FB1C1B78712BF4
S11315900ED17B68092BF2DC164B181CFFF742FABC
S11315A07B6801337B607B68181C00F029F8E6E750
S11315B0FB1C1B78612B0ED17B68002BDFDD0E4BEF
S11315C0181CFFF72FFA7B68013B7B607B68181CB3
S11315D000F016F8D3E7094B181CFFF723FACEE7FF
S11315E0FC26000000A0044000900340A60E00006A
S11315F01C270000582700006827000078270000F7
S113160080B584B000AF78600023FB607A68131C57
S11316105B009B189B009B18DC33FB60044AFB684F
S1131620101C00211A1CFFF793FDBD4604B080BDB9
S11316300090034038B5051C01F042F800F0E8FFC3
S1131640084C2368002B02D0984700202060064CE9
S11316502168002902D0884700222260281CFFF755
S1131660DBF938BD04F0FF1F08F0FF1F10B5041CA0
S113167000F03EFF201C10BDF0B589B001901F1C86
S11316800EAB0391079202901A78081C01990FACD3
S113169001380026049225780670B14217D1119BB7
S11316A0B34214D1049B002B01D06F2D2FD0642D95
S11316B002D0692D00D0A8E0022F02D1039802388D
S11316C09FE0012F00D0A0E00398023894E0692D38
S11316D00ED004D8582D16D0642D1CD108E0752DD9
S11316E004D0782D0FD06F2D15D110E0002712E013
S11316F0019A002A0FDA80242606B2420DD0514204
S11317000191029109E000273E1C102407E0002704
S11317103E1C082403E0002600E001260A24009071
S1131720002006900298211CFFF7C2F80298059148
S1131730211CFFF779F8059A0290092A01D8303262
S113174005E0059A3732782D01D1059A5732009871
S1131750069B02990138D2B200900270013300292D
S113176001D00693DEE7011C082C0BD10498002855
S113177008D0302A06D00B1C013B302200931A708B
S1131780069B0233079802280FD1002E01D1002FA7
S113179002D0109901391091109A1192102C04D191
S11317A00498002801D0023A119203990098119AE2
S11317B0091A8918164A914226DC0099CA18119907
S11317C0121A8A4203DA013830220270F5E7102C2B
S11317D00AD1049C002C07D0019B002B04D0421E8C
S11317E03021023815700170002E02D001382D21ED
S11317F008E0012F02D101382B2103E0022F04D18C
S113180001382021017000E0002009B0F0BDC0467D
S1131810FD010000F0B5B64C1E1CA5446B460A90B1
S11318200B913E3320210020197008920590089AEC
S11318301578002D00D1F9E10898252100F0ADFEBE
S11318400C90002811D1089800F0B6FE0599021CEE
S113185008180590002A00D1E8E10B9808990A9E1F
S1131860B047002800D0E1E1CEE00C9F089C059928
S11318703A1B8B180593002A0CD10C980C9A4378C8
S113188001321D1E252D0CD000270121BC460D97C9
S1131890069119E00B9808990A9DA8470028ECD1F5
S11318A0B2E00C9A002102320124089207910694B6
S11318B03DE02B2B0BDC202B10D0232B00D0BAE0E7
S11318C001239C46013213782B2BF2D1ABE12D2B53
S11318D000D1A5E1302B00D0ADE004E00D9D012D39
S11318E0F0D00220A0E1069C002CEBD00220069050
S11318F0E8E737680436FB43D80F937802321C1CA0
S1131900683C0021042C00D8C1E0DDB26E2B00D06D
S1131910C7E0013208926E2D00D149E100D900E1FF
S1131920632D00D159E107D8252D00D0F3E010AC88
S113193025700996012619E0642D00D0EEE0321DD1
S113194009923068032900D0F6E0079966460096AC
S113195001950291039790A9069A0D9BFFF78CFEBF
S1131960041E00D13FE1634F6F443E1A06980028DD
S11319703CD02023022800D130236F463E373B70F1
S113198022782B2A04D02D2A02D0371C202A0BD1EE
S1131990371C302B08D10B98211C01220A9B984735
S11319A0002831D00134771E069902290ED1612D09
S11319B001D0412D0AD1012F26DD0B98211C0222D2
S11319C00A9DA84700281FD0023F0234351C079EF9
S11319D0B54209DA69460B983E3101220A9B9847C1
S11319E0002811D00135F2E73E1C00E0351C002E22
S11319F003D10698002819D115E0211C0B98321C3C
S1131A000A9CA0470028F4D10122554205950DE116
S1131A1069463F3120240B9801220A9F0C70B84775
S1131A200028F1D00135079FBD42F1DB059A531917
S1131A300593099EFBE6171C2A2B00D0E1E0341D18
S1131A4036680796002E03DA73420025079306953D
S1131A507B780132261C284F0798B84200DDC2E08B
S1131A602E2B11D153782A2B00D142E701320027C3
S1131A701C1C303C092C05D80A214F4301323F1964
S1131A801378F5E701203AE70027381C37E71B4DA8
S1131A90295D1B4D2C57002C00D136E753780132B9
S1131AA033E76E2B0ADC632B2CD002DC582B30D1AD
S1131AB015E0642B13D0692B2BD110E0732B23D0AA
S1131AC009DC6F2B0BD0702B23D101237825082739
S1131AD003219C461DE7752B01D0782B19D10028D2
S1131AE015D0069C022C00D013E70123069310E7BF
S1131AF0BCFDFFFF3F020000FD0100009227000033
S1131B008D270000002804D1002902D101E7012714
S1131B10FFE6FF25FDE6582D65D116E0692D62D15B
S1131B200DE7732D23D002D86F2D5CD10DE0752DF8
S1131B300BD0782D57D108E0022901D100B204E777
S1131B40012900D001E740B2FFE6341D0994306852
S1131B50032906D0022901D180B202E0012900D173
S1131B60C0B2079E6246009201950296F2E634687E
S1131B70311D0991002C00D12F4C6346002B07D056
S1131B8026780134002800D1F0E6BE4237DCEDE6C9
S1131B90002808D0201C61463A1C00F0E8FC00280C
S1131BA02DD0061BE2E6201C00F006FD061CDDE637
S1131BB0351D09953468022907D003290AD0002964
S1131BC000D036E70598206033E76F461421CB5BDD
S1131BD023802EE7059A22602BE73368301D10AC72
S1131BE009902370A6E60C9800F0E6FC059E021C02
S1131BF035180595002819D00B980C992FE63E1C32
S1131C00B4E600240794191C3039092900D922E7C5
S1131C10079D0A236B430132581807901378F2E7A3
S1131C20002706974EE601200D904BE60598912477
S1131C30A400A544F0BDC0468C270000F0B50027E1
S1131C40A9B0059006910F9309920D970B970897E9
S1131C500A970C970497099D2C78002C00D103E374
S1131C60201C00F047FB002822D0099A013210788A
S1131C70099200F03FFB0028F7D1002F00D0F1E2D9
S1131C80002106980A1C059CA047061C00F032FBA4
S1131C90002803D0049B01330493F1E7701C04D1A2
S1131CA02E98002800D1DFE201270698311CABE210
S1131CB0252C1BD0002F19D1391C06983A1C059EDF
S1131CC0B047C1B2A1420AD006980122B0472E9F64
S1131CD0002F00D1C8E2099D01350995C2E2049B99
S1131CE009990133013104930991B4E71EAC201C16
S1131CF000212822FFF7BAFC0998A54E45786660B2
S1131D00281E25280CD1211C14A82822E57000F0D7
S1131D103BFC099C00200234099407900E90D7E004
S1131D202A2D02D0099C013405E00123099923706E
S1131D30099C88780234021C303A092A1FD80026EC
S1131D400A256E433038013436182078031C303BA2
S1131D50092BF5D91EAD6E60002E0ED10123594218
S1131D60E97014A8291C2822013400F00DFC2B78FA
S1131D700994FF2507960E969DE001266E701EA914
S1131D80682804D06C280CD10320887007E063789D
S1131D9002228A70682B02D101258D706419607843
S1131DA001341EABD8705838202871D8FEF732FDA4
S1131DB07270702B707070707070701572707070BB
S1131DC070727070707072721170701970727070BD
S1131DD0720003269E7078215BE09A78002A59D01D
S1131DE056E09978002901D0FF20D87000231EAA5C
S1131DF0D518FF2601332E72202BF8D1C121FE20E5
S1131E005172107346E09D78002D01D0FF26DE70DC
S1131E1063785E2B02D00134002102E0A378012113
S1131E2002345D2B07D11EAB2020D87463780134B3
S1131E3001E0E3780334002B00D139E25D2B00D1BB
S1131E4039E2DDB2EA081EAE0720B21818400125B7
S1131E508540107A2E1C6578064316722D2D14D1F8
S1131E60A278002A11D05D2A0FD001339342E0DC1E
S1131E70DEB2F0081EAD281807251D400126AE402D
S1131E80351C067A35430572EFE701342B1CD2E783
S1131E90FF21D9701EAE311C282214A800F074FB57
S1131EA06A467A327178107833780E910790F57813
S1131EB0013476680994002B06D1252D08D00F9A99
S1131EC0146804320F9200E000246E2D01D1ADE1BC
S1131ED00024002F01D001270AE00698391C0222B1
S1131EE0059B9847002803D02E9F002FF3D1BBE118
S1131EF0692D25D012D85B2D00D115E106D8252DEA
S1131F0000D1D3E0582D00D0AEE13EE0632D00D1E6
S1131F107CE0642D00D0A7E10A2012E0732D00D1EB
S1131F20E6E007D86E2D00D180E16F2D00D09BE153
S1131F30082030E0752D2DD0782D00D094E124E0D8
S1131F400020002F48D112A913AA11AD01910292C9
S1131F50311C0095059A069B00F0E3F9119E002EB2
S1131F6005D12E98002828D101240B947CE1049BF0
S1131F70129D9E190496002D05D080210A069042D8
S1131F8001D043422AE0031C28E0102003E0C046AD
S1131F90FFFFFF7F0A20002F1ED111AB13A912AD42
S1131FA000930291069B311C0195059A00F0B9F942
S1131FB0119E031C002E03D1D3E70127331C0DE02F
S1131FC0049A129D90190490002D07D080210E06CA
S1131FD0B34203D05B4201E001270023002C11D05F
S1131FE0079E032E09D8301CFEF714FC06020406D3
S1131FF0237002E0238000E023600C9D7942794144
S11320006A180C920A9801300A906EE00E98002823
S113201000D10126002C33D000211191A6198F4242
S113202000D01FE1B44219D02E9A002A04D011988E
S1132030002811DA01230D93002106980A1C059D3E
S1132040A8470890013009D008AB1D782570119974
S1132050013401311191E5E700240D94119E2E9A6B
S1132060002E00D1A0E0002A03D00D99002900D150
S1132070F8E0049A0C9C9019013404900C94D1E07B
S11320801194013E701C0CD0002106980A1C059B7B
S11320909847013E0890013003D0119D01351195F8
S11320A0F0E7119E002E00D0BCE0DDE0002F00D050
S11320B0D5E0002106980A1C059EB047051C00F0D7
S11320C019F9002803D0049C01340494F1E7252D68
S11320D008D001220698291CB0472E9A002A00D164
S11320E042E7BCE004990131049101240B94B2E568
S11320F001230B93002F17D10698391C3A1C059D18
S1132100A847051C00F0F6F8002806D0049B00211F
S11321100133049306980A1CF1E701220698291C4E
S1132120059B984701220B92002C49D00021119164
S11321308F4200D096E0013E351C711C24D02E9AAB
S1132140002A04D0119B002B1CDC01200D900021DF
S113215006980A1C059B98470890013014D008A9DA
S11321600B7814A8DA088218089807210140127A1B
S113217001208840104207D02370119D013401359D
S11321801195D8E700260D96119B08AE3178002BE7
S113219005D02E9800280AD00D9A002A07D10122D2
S11321A00698059FB8472E9A002A5DD05AE0002071
S11321B0049E20700C9CF318013404930C942BE0BF
S11321C01194013E351C711C19D0002106980A1C7B
S11321D0059CA0470890013011D008A8017814AAE2
S11321E0CB080898D418072303400121247A994086
S11321F0013E214203D0119D01351195E2E7119E64
S1132200002E05D1069808990122059B984722E5DE
S1132210049B089998190490002D03DB0698012269
S1132220059DA8470A9901310A9114E5002C00D1B3
S113223011E5079A032A00D90DE5101CFEF7EAFA06
S1132240070A02076D4610214A5B228003E50498C1
S1132250206000E568461026335C2370FBE4012708
S11322600B97F8E40127F6E4002106980222059D65
S1132270A8470A99002805D0002928D101267042D0
S11322800C9024E0002922D10B9A002A1FD00A992D
S113229006980A1C059FB8470A99041C022206984E
S11322A0B8470028EAD10698211C0122B8470EE05D
S11322B0FF211EABEDE5002900D1EBE520AD2A7826
S11322C028A8D6432E7001358542F8D1E2E50C9852
S11322D029B0F0BD8022031C00B5002051008B42C0
S11322E004D803480122C3185878104000BDC046E2
S11322F0972700008022031C00B5002051008B4268
S113230004D803481022C3185878104000BDC046B2
S113231097270000031C613B00B5192B00D8203817
S113232000BDF0B587B0059101930D990E9B009205
S113233000220A60071C1A60904216DB012814D0A0
S1132340242812DC0598904207DD009C0198111C9A
S1132350A0470126041C351C02E0141C161C402551
S113236000220392974209D002E0141C161C402557
S113237001214842391CFEF757FA039000230293C7
S113238004930598864200DD9EE0621C00D19BE028
S11323906022154200D097E0681E0F28F1D8FEF79E
S11323A02FFA082EF03FF0F0F052F0F0F0F0F0F0D9
S11323B0F052201CFFF79EFF021E09D00021009C52
S11323C001980A1CA047041C049801300490D8E723
S11323D02B2C07D1009D0198111CA8470136041C21
S11323E00225CEE702252D2CCBD1111C0198009B90
S11323F098470D9901220136041C0A60C1E7002F99
S113240002D00825102FBCD10825302CB9D10021C9
S1132410009C01980A1CA0470136041C0425B0E75F
S1132420582C01D0782C09D1002101980A1C009B5A
S113243098470136041C08251027A2E71025002F11
S11324409FD108279DE7002F00D10A270398002871
S113245005D101225042391CFEF7E6F90390201CF5
S11324603038092802D8B84211DB0BE0201CFFF7F2
S113247031FF002806D0201CFFF74CFF011C363921
S1132480B94203DD102D1DD120257AE73738029D8E
S1132490039C0123A54201D80E9B1B68029AC5B276
S11324A07A43D1438D4200D901230E9C8018002128
S11324B023600290009D01980A1CA8470136041C61
S11324C010255EE740255CE734273D4003D10C9B93
S11324D002951D6004E0049D013E0C9976190E607E
S11324E0211C01980122009CA047029807B0F0BD6E
S11324F030B5C9B2031C1F2A31D9444203232340F7
S113250005D0D21AC51801700130A842FBD10029A8
S113251005D00D060C042C430B0221431943540926
S1132520031C002C0ED0251C013D196059609960D4
S1132530D960196159619961D9612033002DF3D1B2
S11325406301C318D006400F07D0041C1D1C013CB6
S113255002C5002CFBD180001B18032422409D18C7
S1132560002A03D019700133AB42FBD130BD00B552
S1132570C9B28218904205D0037801308B42F9D158
S1132580013800E0002000BD10B50023934203D0C1
S1132590CC5CC4540133F9E710BD00B5C9B203786B
S11325A0421C002B03D08B4205D0101CF7E74B4292
S11325B059414942084000BD00B5431E01331A7811
S11325C0002AFBD1181A00BD10B50B4C0B4B9C42D2
S11325D002D001CC8047F9E7094C0A48844202D072
S11325E008CC9847F9E7084C08498C4202D004CC3F
S11325F09047F9E710BDC0469828000098280000CD
S113260098280000982800009828000098280000C6
S113261010B5084C084B9C4202D004CC9047F9E713
S1132620064C0748844203D0043C21688847F8E7F5
S113263010BDC04698280000982800009828000083
S11326409828000000B588421FD0002A1DD003231B
S1132650194207D1184205D19A4203D908C9043A4C
S113266008C0F2E70123194209D1184207D19A425E
S113267005D90B88023A038002310230E5E70B7872
S1132680013A037001310130DFE700BD38B50B4D6D
S1132690002D11D000242B191968002906D02B19FC
S11326A058689A68FFF7CEFF0C34F4E75A68002A9A
S11326B0F5D198680028F2D138BDC04698280000AA
S11326C0054B10B51C68002C04D0A06861688847CD
S11326D02468F8E710BDC04618F0FF1F054B181C0E
S11326E0002805D0854681B00020C043009001B089
S11326F0F746704700300020F74670470D0A4865DA
S11327006C6C6F20576F726C64212054504D204CB8
S11327106162202D2050574D0D0A000050726573E0
S113272073202271222F22612220746F20696E632C
S113273072656173652F6465637265617365207486
S1132740686520616E676C65206F6620746865201B
S1132750536572766F0D0A00496E63726561736921
S11327606E670D0A00000000446563726561736959
S11327706E670D0A000000000D0A4E6F742076612A
S11327806C6964204B65790D0A00000000010000AB
S1132790000102000000030080808080808080802F
S11327A080909090909080808080808080808080D5
S11327B080808080808080801804040404040404E1
S11327C004040404040404040202020202020202D5
S11327D00202040404040404044343434343434102
S11327E041414141414141414141414141414141D5
S11327F04141410404040404042323232323232107
S113280021212121212121212121212121212121B4
S113281021212104040404800000000000000000C1
S113282000000000000000000000000000000000A4
S11328300000000000000000000000000000000094
S11328400000000000000000000000000000000084
S11328500000000000000000000000000000000074
S11328600000000000000000000000000000000064
S11328700000000000000000000000000000000054
S11328800000000000000000000000000000000044
S10B289000000000000000003C
S11328989828000000F0FF1F00000000000000005E
S10B28A8000000000000000024
S90309E90A
